:020000040000FA
:100000000C9462000C948A000C948A000C948A0070
:100010000C948A000C948A000C948A000C948A0038
:100020000C948A000C948A000C948A000C948A0028
:100030000C948A000C948A000C948A000C948A0018
:100040000C94ED030C948A000C945D040C9437041A
:100050000C948A000C948A000C948A000C948A00F8
:100060000C948A000C948A000000000023002600F3
:10007000290000000000240027002A0000000000E2
:10008000250028002B0004040404040404040202D4
:100090000202020203030303030301020408102007
:1000A0004080010204081020010204081020000012
:1000B0000008000201000003040700000000000027
:1000C00000008F0411241FBECFEFD8E0DEBFCDBFEC
:1000D00021E0A2E2B1E001C01D92A53FB207E1F725
:1000E00011E0A0E0B1E0E0E3F3E102C005900D9281
:1000F000A232B107D9F710E0C2E6D0E004C02197E0
:10010000FE010E949009C136D107C9F70E94DE04A2
:100110000C9496090C940000833081F028F481300F
:1001200099F08230A9F008958730A9F08830C9F09D
:100130008430B1F4809180008F7D03C08091800075
:100140008F7780938000089584B58F7784BD08955C
:1001500084B58F7DFBCF8091B0008F778093B00006
:1001600008958091B0008F7DF9CF1F93CF93DF93D7
:10017000282F30E0F901E255FF4F8491F901E6564E
:10018000FF4FD491F901EA57FF4FC491CC23A9F056
:10019000162F81110E948C00EC2FF0E0EE0FFF1F54
:1001A000E458FF4FA591B4918FB7F894EC911111D9
:1001B00008C0D095DE23DC938FBFDF91CF911F91D4
:1001C0000895DE2BF8CFCF93DF9390E0FC01E65645
:1001D000FF4F24918A579F4FFC0184918823D1F0CF
:1001E00090E0880F991FFC01EE58FF4FA591B49144
:1001F000FC01E458FF4FC591D49161110EC09FB727
:10020000F8948C91E22FE0958E238C932881E22341
:10021000E8839FBFDF91CF9108958FB7F894EC9159
:10022000E22BEC938FBFF6CF3FB7F89480912B0170
:1002300090912C01A0912D01B0912E0126B5A89B83
:1002400005C02F3F19F00196A11DB11D3FBFBA2F68
:10025000A92F982F8827BC01CD01620F711D811D28
:10026000911D42E0660F771F881F991F4A95D1F7AD
:100270000895CF93DF93EC0198818091DB0186FB99
:10028000222720F9291781F090FB86F98093DB0162
:10029000992351F00E9414016093D7017093D80103
:1002A0008093D9019093DA01688183E0DF91CF9147
:1002B0000C94B500AF92BF92CF92DF92EF92FF9273
:1002C0000F931F93CF93DF936C017B018B01040F7E
:1002D000151FEB015E01AE18BF08C017D10759F01A
:1002E0006991D601ED91FC910190F081E02DC6015C
:1002F0000995892B79F7C501DF91CF911F910F9156
:10030000FF90EF90DF90CF90BF90AF900895FC01E9
:10031000538D448D252F30E0842F90E0821B930B6A
:10032000541710F0CF96089501970895FC01918D10
:10033000828D981761F0A28DAE0FBF2FB11D5D9613
:100340008C91928D9F5F9F73928F90E008958FEFB5
:100350009FEF0895FC01918D828D981731F0828D69
:10036000E80FF11D858D90E008958FEF9FEF0895C0
:10037000FC01918D228D892F90E0805C9F4F821B24
:1003800091098F73992708958FE291E00E94B80137
:1003900021E0892B09F420E0822F089580E090E08D
:1003A000892B29F00E94C40181110C94000008954A
:1003B000FC01A48DA80FB92FB11DA35ABF4F2C91DA
:1003C000848D90E001968F739927848FA689B789D1
:1003D0002C93A089B1898C91837080648C93938DC8
:1003E000848D981306C00288F389E02D80818F7D6B
:1003F00080830895EF92FF920F931F93CF93DF9323
:10040000EC0181E0888F9B8D8C8D98131AC0E88950
:10041000F989808185FF15C09FB7F894EE89FF891F
:100420006083E889F98980818370806480839FBFBD
:1004300081E090E0DF91CF911F910F91FF90EF90BD
:100440000895F62E0B8D10E00F5F1F4F0F731127CD
:10045000E02E8C8D8E110CC00FB607FCFACFE88908
:10046000F989808185FFF5CFCE010E94D801F1CFB7
:10047000EB8DEC0FFD2FF11DE35AFF4FF0829FB77C
:10048000F8940B8FEA89FB8980818062CFCFCF936C
:10049000DF93EC01888D8823B9F0AA89BB89E889AC
:1004A000F9898C9185FD03C0808186FD0DC00FB652
:1004B00007FCF7CF8C9185FFF2CF808185FFEDCFD0
:1004C000CE010E94D801E9CFDF91CF910895CF935B
:1004D000DF93E8EBF0E08491E4EAF0E0D491E0E926
:1004E000F0E0C49130E020E0CC2399F081110E942B
:1004F0008C00EC2FF0E0EE0FFF1FE859FF4FA591A5
:10050000B491EC91ED2391E080E009F490E0292F83
:10051000382F8091DB01482F477050E070E060E099
:100520004230510561057105D1F043305105610537
:10053000710591F4232B81F40E9414016093F10161
:100540007093F2018093F3019093F4018091DB01A9
:10055000887F84608093DB01DF91CF910895232B06
:10056000D9F3887F83608093DB010E94140160933C
:10057000ED017093EE018093EF019093F001ECCFC9
:10058000FC0101900020E9F73197AF01481B590B9E
:10059000BC018FE291E00C945A018F929F92AF922E
:1005A000BF920F931F93CF93DF93CDB7DEB7A19781
:1005B0000FB6F894DEBF0FBECDBF19A2423008F4CB
:1005C0004AE08E010F5D1F4F842E912CB12CA12C7F
:1005D000A50194010E946E09E62FB901CA01EA3013
:1005E000F4F4E05DD801EE938D01232B242B252B11
:1005F00079F790E080E0109719F0CD010E94C002D9
:10060000A1960FB6F894DEBF0FBECDBFDF91CF919C
:100610001F910F91BF90AF909F908F900895E95CCC
:10062000E1CF4F925F926F927F928F929F92AF92A3
:10063000BF92CF92DF92EF92FF920F931F93CF93CF
:100640006B017C01742EAC019B010E946909882317
:1006500099F082E191E0CF911F910F91FF90EF907F
:10066000DF90CF90BF90AF909F908F907F906F90D2
:100670005F904F900C94C00246015701E894B7F880
:100680002FEF3FEF4FE75FE7C501B4010E94690913
:1006900081110DC02FEF3FEF4FE75FE7C501B401B8
:1006A0000E94320718161CF486E191E0D4CF2FEF98
:1006B0003FEF4FE75FE4C701B6010E9464091816D7
:1006C0001CF48AE191E0C7CF2FEF3FEF4FE75FECDB
:1006D000C701B6010E94320787FDF3CF20E030E06A
:1006E000A901C701B6010E94320710E000E087FFB0
:1006F0000AC06DE28FE291E00E94FA018C01F7FAE4
:10070000F094F7F8F094C0E060E070E080E09FE3E0
:100710007C1641F020E030E040E251E40E94C30842
:10072000CF5FF6CFA70196010E9457082B013C012D
:100730000E9435094B015C014AE00E94CD027C0118
:10074000E00EF11ECC23C1F1C501B4010E943707B0
:100750009B01AC01C301B2010E9456084B015C0130
:100760006EE28FE291E00E94FA01E80EF91EC1509C
:1007700018F120E030E040E251E4C501B4010E94EC
:1007800098072B013C010E9435094B01B12CA12C8B
:100790004AE0C501B4010E94CD02E80EF91EC50170
:1007A000B4010E9437079B01AC01C301B2010E9452
:1007B00056084B015C01DBCFC701CF911F910F9110
:1007C000FF90EF90DF90CF90BF90AF909F908F9071
:1007D0007F906F905F904F9008951F920F920FB689
:1007E0000F9211242F933F938F939F93AF93BF93B7
:1007F0008091270190912801A0912901B0912A01AF
:100800003091260123E0230F2D3758F50196A11DC5
:10081000B11D209326018093270190932801A09376
:100820002901B0932A0180912B0190912C01A09174
:100830002D01B0912E010196A11DB11D80932B01B8
:1008400090932C01A0932D01B0932E01BF91AF91F5
:100850009F918F913F912F910F900FBE0F901F90FE
:10086000189526E8230F0296A11DB11DD2CF1F9225
:100870000F920FB60F9211242F933F934F935F93D4
:100880006F937F938F939F93AF93BF93EF93FF9358
:100890008FE291E00E94D801FF91EF91BF91AF915B
:1008A0009F918F917F916F915F914F913F912F9188
:1008B0000F900FBE0F901F9018951F920F920FB6BA
:1008C0000F9211242F938F939F93EF93FF93E091B7
:1008D0003F01F09140018081E0914501F091460196
:1008E00082FD1BC09081809148018F5F8F732091A2
:1008F0004901821741F0E0914801F0E0E15DFE4FCF
:10090000958F80934801FF91EF919F918F912F9147
:100910000F900FBE0F901F9018958081F4CFCF934A
:10092000DF93EFE2F1E01382128288EE93E0A0E021
:10093000B0E084839583A683B78384E091E09183BC
:10094000808385EC90E09587848784EC90E097879E
:10095000868780EC90E0918B808B81EC90E0938B8C
:10096000828B82EC90E0958B848B86EC90E0978B69
:10097000868B118E128E138E148E61E089E00E9498
:10098000E300CBEDD1E08881807F8F7E888361E0BA
:1009900084E00E94E3008881806488831092D701FC
:1009A0001092D8011092D9011092DA01ECEDF1E029
:1009B00080818E7F8083DF91CF910895CF93DF93E5
:1009C00000D0CDB7DEB7789484B5826084BD84B59D
:1009D000816084BD85B5826085BD85B5816085BD3A
:1009E00080916E00816080936E00109281008091F2
:1009F000810082608093810080918100816080937A
:100A00008100809180008160809380008091B1009E
:100A100084608093B1008091B00081608093B000C9
:100A200080917A00846080937A0080917A0082605D
:100A300080937A0080917A00816080937A0080911F
:100A40007A00806880937A001092C100E0913F01A3
:100A5000F091400182E08083E0913B01F0913C0104
:100A60001082E0913D01F0913E018FEC8083109265
:100A70004701E0914301F091440186E08083E091D9
:100A80004101F0914201808180618083E0914101C8
:100A9000F0914201808188608083E0914101F09172
:100AA0004201808180688083E0914101F0914201A0
:100AB00080818F7D808361E083E00E94E30060E0BD
:100AC00083E00E94B50061E084E00E94E30060E002
:100AD00084E00E94B50061E089E00E94E30060E0EC
:100AE00089E00E94B50060E08AE00E94E3000E9475
:100AF000670260E089E00E94B5008091DB0184FD1F
:100B000005C01A82CE0102960E9439018091DB0154
:100B10008F7D8093DB018091DC0180FF03C08E7F9D
:100B20008093DC010E9414016093D7017093D80177
:100B30008093D9019093DA018091DB0180688093E2
:100B4000DB0161E084E00E94B5000E941401609323
:100B50002201709323018093240190932501DD24C9
:100B6000D39400E010E083E0E82EF12C0E94140101
:100B70008090220190902301A0902401B090250143
:100B8000DC01CB0188199909AA09BB09883893416E
:100B9000A105B10560F18091DB0185FB992790F9F2
:100BA0009D2590FB85F98093DB012091DC01322F9C
:100BB0003170931749F090FB20F92093DC019923C1
:100BC00019F088608093DB01B501A40148575C4EA1
:100BD0006F4F7F4F40932201509323016093240174
:100BE0007093250131E0E31AF10809F0BFCF0E94AC
:100BF00067028091DB018770843008F043C0823047
:100C000008F09FC0882309F45DC0813009F46FC0EB
:100C10008091DB0186FF1AC10E9414018090D701E8
:100C20009090D801A090D901B090DA0168197909A3
:100C30008A099B09643F71408105910508F406C14A
:100C40008091DB0187FB662760F96D2560FB87F9E2
:100C50008093DB0184E00E94B5008091D7019091E0
:100C6000D801A091D901B091DA018C509E4FAF4FBD
:100C7000BF4F8093D7019093D801A093D901B0932F
:100C8000DA01CACF843009F485C0853009F60E94A4
:100C900014018090E9019090EA01A090EB01B090DE
:100CA000EC01681979098A099B09603A7648814004
:100CB000910508F4ADCF8091DB0183FFA9CF877F39
:100CC0008093DB0161E089E00E94B5000E9414017D
:100CD0006093E9017093EA018093EB019093EC013A
:100CE0008091DB01887F81608093DB0191CF0E943E
:100CF00014014B015C018091E9019091EA01A091FE
:100D0000EB01B091EC01A5019401281B390B4A0BB2
:100D10005B0BDA01C9010297A105B10508F478CF90
:100D200060E089E00E94B5008092E9019092EA01BA
:100D3000A092EB01B092EC018091DB01887F826090
:100D4000D3CF0E9414018090E9019090EA01A09015
:100D5000EB01B090EC01681979098A099B09603AA6
:100D600076488140910508F453CF42E060E070E49A
:100D70008CE196E40E9411038EE191E00E94C00292
:100D80001982CE0101960E9439018091DB01887E93
:100D90008561AACF6091F1017091F2018091F30118
:100DA0009091F4018090ED019090EE01A090EF0100
:100DB000B090F001681979098A099B090E943707E8
:100DC00020E030E048EE51E40E94C30820E030E02B
:100DD00040E05FE30E9498074B015C0142E00E9403
:100DE00011038EE191E00E94C002FF24F39420E001
:100DF00030E048EC52E4C501B4010E9432071816F5
:100E00000CF4F12C8091DB0186FB992790F9F916FF
:100E1000C1F0F0FA86F98093DB0120E030E048EC85
:100E200052E4C501B4010E943207181654F00E9422
:100E300014016093D7017093D8018093D9019093E6
:100E4000DA016F2D83E00E94B5009FCF01151105D7
:100E500009F489CE0E94C401882309F484CE0E943B
:100E6000000081CE0E94740708F481E00895E894A0
:100E700009C097FB3EF490958095709561957F4FE2
:100E80008F4F9F4F9923A9F0F92F96E9BB27939590
:100E9000F695879577956795B795F111F8CFFAF4A0
:100EA000BB0F11F460FF1BC06F5F7F4F8F4F9F4FD1
:100EB00016C0882311F096E911C0772321F09EE82F
:100EC000872F762F05C0662371F096E8862F70E095
:100ED00060E02AF09A95660F771F881FDAF7880F6F
:100EE0009695879597F90895990F0008550FAA0BC5
:100EF000E0E8FEEF16161706E807F907C0F012162D
:100F00001306E407F50798F0621B730B840B950B2F
:100F100039F40A2661F0232B242B252B21F4089584
:100F20000A2609F4A140A6958FEF811D811D089521
:100F30000E94AB070C941C080E940E0838F00E9417
:100F4000150820F0952311F00C9405080C940B085B
:100F500011240C9450080E942D0870F3959FC1F342
:100F6000950F50E0551F629FF001729FBB27F00D57
:100F7000B11D639FAA27F00DB11DAA1F649F6627AC
:100F8000B00DA11D661F829F2227B00DA11D621FFB
:100F9000739FB00DA11D621F839FA00D611D221FB5
:100FA000749F3327A00D611D231F849F600D211D99
:100FB000822F762F6A2F11249F5750409AF0F1F01C
:100FC00088234AF0EE0FFF1FBB1F661F771F881F85
:100FD00091505040A9F79E3F510580F00C940508B0
:100FE0000C9450085F3FE4F3983ED4F386957795D0
:100FF0006795B795F795E7959F5FC1F7FE2B880F2B
:10100000911D9695879597F9089597F99F6780E8C0
:1010100070E060E008959FEF80EC089500240A944A
:101020001616170618060906089500240A941216C3
:101030001306140605060895092E0394000C11F4F6
:10104000882352F0BB0F40F4BF2B11F460FF04C0A3
:101050006F5F7F4F8F4F9F4F089557FD9058440FFC
:10106000551F59F05F3F71F04795880F97FB991F07
:1010700061F09F3F79F087950895121613061406C4
:10108000551FF2CF4695F1DF08C016161706180651
:10109000991FF1CF86957105610508940895E8942C
:1010A000BB2766277727CB0197F908955058BB27B0
:1010B000AA270E946E080C941C080E940E0838F0A3
:1010C0000E94150820F039F49F3F19F426F40C947F
:1010D0000B080EF4E095E7FB0C940508E92F0E943D
:1010E0002D0858F3BA17620773078407950720F095
:1010F00079F4A6F50C944F080EF4E0950B2EBA2F58
:10110000A02D0B01B90190010C01CA01A00111240D
:10111000FF27591B99F0593F50F4503E68F11A16B9
:10112000F040A22F232F342F4427585FF3CF46954A
:1011300037952795A795F0405395C9F77EF41F166C
:10114000BA0B620B730B840BBAF09150A1F0FF0F36
:10115000BB1F661F771F881FC2F70EC0BA0F621F22
:10116000731F841F48F4879577956795B795F79512
:101170009E3F08F0B0CF9395880F08F09927EE0FA7
:101180009795879508950E94D7080C941C080E9493
:10119000150858F00E940E0840F029F45F3F29F02E
:1011A0000C94050851110C9450080C940B080E94E3
:1011B0002D0868F39923B1F3552391F3951B550B33
:1011C000BB27AA2762177307840738F09F5F5F4F1A
:1011D000220F331F441FAA1FA9F335D00E2E3AF059
:1011E000E0E832D091505040E695001CCAF72BD071
:1011F000FE2F29D0660F771F881FBB1F26173707C2
:101200004807AB07B0E809F0BB0B802DBF01FF27F3
:1012100093585F4F3AF09E3F510578F00C940508C3
:101220000C9450085F3FE4F3983ED4F3869577958D
:101230006795B795F7959F5FC9F7880F911D9695AC
:10124000879597F90895E1E0660F771F881FBB1F08
:10125000621773078407BA0720F0621B730B840BB5
:10126000BA0BEE1F88F7E09508950E94350888F0C4
:101270009F5798F0B92F9927B751B0F0E1F0660F5A
:10128000771F881F991F1AF0BA95C9F714C0B1309B
:1012900091F00E944F08B1E008950C944F08672F19
:1012A000782F8827B85F39F0B93FCCF386957795CA
:1012B0006795B395D9F73EF49095809570956195B3
:1012C0007F4F8F4F9F4F08950E94740708F48FEF50
:1012D00008950E947407880B990B0895A1E21A2EB5
:1012E000AA1BBB1BFD010DC0AA1FBB1FEE1FFF1FCA
:1012F000A217B307E407F50720F0A21BB30BE40B1A
:10130000F50B661F771F881F991F1A9469F7609560
:101310007095809590959B01AC01BD01CF0108951A
:10132000EE0FFF1F0590F491E02D0994F894FFCF84
:1013300000000000FA015A0187014702B801960136
:10134000AA016E616E00696E66006F7666000D0A16
:0213500000009B
:107E0000112484B714BE81FFF0D085E080938100F7
:107E100082E08093C00088E18093C10086E0809377
:107E2000C20080E18093C4008EE0C9D0259A86E02C
:107E300020E33CEF91E0309385002093840096BBD3
:107E4000B09BFECF1D9AA8958150A9F7CC24DD24C4
:107E500088248394B5E0AB2EA1E19A2EF3E0BF2EE7
:107E6000A2D0813461F49FD0082FAFD0023811F036
:107E7000013811F484E001C083E08DD089C08234E0
:107E800011F484E103C0853419F485E0A6D080C0E4
:107E9000853579F488D0E82EFF2485D0082F10E0AE
:107EA000102F00270E291F29000F111F8ED06801E7
:107EB0006FC0863521F484E090D080E0DECF843638
:107EC00009F040C070D06FD0082F6DD080E0C81688
:107ED00080E7D80618F4F601B7BEE895C0E0D1E017
:107EE00062D089930C17E1F7F0E0CF16F0E7DF06D8
:107EF00018F0F601B7BEE89568D007B600FCFDCFD4
:107F0000A601A0E0B1E02C9130E011968C91119780
:107F100090E0982F8827822B932B1296FA010C0160
:107F200087BEE89511244E5F5F4FF1E0A038BF0790
:107F300051F7F601A7BEE89507B600FCFDCF97BE46
:107F4000E89526C08437B1F42ED02DD0F82E2BD052
:107F50003CD0F601EF2C8F010F5F1F4F84911BD097
:107F6000EA94F801C1F70894C11CD11CFA94CF0C13
:107F7000D11C0EC0853739F428D08EE10CD085E9AC
:107F80000AD08FE07ACF813511F488E018D01DD067
:107F900080E101D065CF982F8091C00085FFFCCF94
:107FA0009093C60008958091C00087FFFCCF809118
:107FB000C00084FD01C0A8958091C6000895E0E648
:107FC000F0E098E1908380830895EDDF803219F02E
:107FD00088E0F5DFFFCF84E1DECF1F93182FE3DFCA
:107FE0001150E9F7F2DF1F91089580E0E8DFEE27F6
:047FF000FF270994CA
:027FFE00040479
:00000001FF
